:100000000C942A000C943C000C943C000C943C0092
:100010000C943C000C943C000C943C000C943C0070
:100020000C943C000C943C000C943C000C943C0060
:100030000C943C000C943C000C943C000C943C0050
:100040000C943C000C943C000C943C000C943C0040
:100050000C943C0011241FBECFE5D8E0DEBFCDBF1D
:1000600020E0A0E6B0E001C01D92A436B207E1F79F
:100070000E9471000C94B7000C940000FC01A08158
:10008000B1814E9121E030E0C901028002C0880FA9
:10009000991F0A94E2F7842B8C93A081B1814E9131
:1000A000C901038002C0880F991F0A94E2F7842BCC
:1000B0008C93A081B1814C91C901028002C0880F4C
:1000C000991F0A94E2F7842B8C93A081B1818C91C3
:1000D000038002C0220F331F0A94E2F7282B2C93CF
:1000E0000895E0E6F0E085E390E09183808381E08D
:1000F000828382E08383CF010E943E00E0E6F0E04D
:1001000081E090E0A081B1814C919C01028002C00D
:10011000220F331F0A94E2F7242B2C93A081B18184
:100120004C919C01038002C0220F331F0A94E2F716
:10013000242B2C93A081B1813C91AC01028002C0A0
:10014000440F551F0A94E2F7242F209523232C9364
:10015000A081B1813C91AC01038002C0440F551FC6
:100160000A94E2F7242F209523232C93CBCFF894E5
:02017000FFCFBF
:00000001FF
