:100000000C942A000C943C000C943C000C943C0092
:100010000C943C000C943C000C943C000C943C0070
:100020000C943C000C943C000C943C000C943C0060
:100030000C943C000C943C000C943C000C943C0050
:100040000C943C000C943C000C943C000C943C0040
:100050000C943C0011241FBECFE5D8E0DEBFCDBF1D
:1000600020E0A0E6B0E001C01D92A136B207E1F7A2
:100070000E9490000C94A0000C94000085B3837043
:1000800085BBA198A0980895A09881E090E0FC011C
:100090003197F1F7A19A0197F1F70895A19A81E0BC
:1000A00090E0FC013197F1F7A098FC013197F1F74E
:1000B000A1980197F1F7089598E021E030E0A09A27
:1000C000F9013197F1F7882314F4A19801C0A19A9E
:1000D000F9013197F1F7A098F9013197F1F7989B61
:1000E000FECF880F915059F7A09A81E090E0FC0173
:1000F0003197F1F7A198FC013197F1F7A098FC0135
:100100003197F1F723B321FB332730F921E023277F
:1001100020936000A09A0197F1F780916000089504
:100120000E943E000E94440082EA0E945C008DE032
:100130000E945C0083E80E945C000E944E00F2CFA7
:04014000F894FFCF61
:00000001FF
