:100000000C942A000C943C000C943C000C943C0092
:100010000C943C000C943C000C943C000C943C0070
:100020000C943C000C943C000C943C000C943C0060
:100030000C943C000C943C000C943C000C943C0050
:100040000C943C000C943C000C943C000C943C0040
:100050000C943C0011241FBECFE5D8E0DEBFCDBF1D
:1000600020E0A0E6B0E001C01D92A836B207E1F79B
:100070000E94BF010C94EA010C940000262F372F38
:10008000E0E6F0E0318320838283938342813381F1
:1000900024B381E090E0BC0102C0660F771F4A954F
:1000A000E2F702C0880F991F3A95E2F7862B972B4B
:1000B00080959095822384BB0895FC01A081B18135
:1000C0004C9121E030E0C901028002C0880F991FE5
:1000D0000A94E2F7842B8C9345E050E0CA01019723
:1000E000F1F7A081B1818C91038002C0220F331FF0
:1000F0000A94E2F7209528232C93CA010197F1F77F
:100100000895FC01A081B1819C9121E030E0A9011A
:10011000038002C0440F551F0A94E2F7842F809594
:1001200089238C9385E090E0DC011197F1F7A081A1
:10013000B1816C91A901028002C0440F551F0A943D
:10014000E2F7462B4C93A3E0B0E01197F1F7A081C2
:10015000B1814C91038002C0220F331F0A94E2F751
:10016000242B2C930197F1F70895EF92FF920F93B0
:100170001F93CF93DF93DC0178E081E090E003E010
:1001800010E0C5E0D0E0ED91FC9111973081AC0119
:1001900012960C90129702C0440F551F0A94E2F772
:1001A000242F209523232083F8013197F1F766232C
:1001B00084F4ED91FC91119740819C0113960C9071
:1001C000139702C0220F331F0A94E2F7242B2083D7
:1001D00011C0ED91FC9111973081AC0113960C90F8
:1001E000139702C0440F551F0A94E2F7242F20955D
:1001F00023232083FE013197F1F7ED91FC911197B4
:1002000040819C0112960C90129702C0220F331F5E
:100210000A94E2F7242B2083FE013197F1F7ED9148
:10022000FC9111973291AC0112960C90129702C07A
:10023000440F551F0A94E2F7242F2095232320838F
:10024000ED90FC901197AC0112960C90129702C0A1
:10025000440F551F0A94E2F7F7013297208130E0EE
:1002600024233523232BD1F3F7012291422B408302
:10027000660F715009F087CFED91FC911197308195
:1002800081E090E0AC0112960C90129702C0440FEE
:10029000551F0A94E2F7242F209523232083E3E0BF
:1002A000F0E03197F1F7ED91FC91119740819C01BD
:1002B00013960C90139702C0220F331F0A94E2F793
:1002C000242B208345E050E0FA013197F1F7ED91BE
:1002D000FC91119760819C0112960C90129702C0BC
:1002E000220F331F0A94E2F7262B2083FA0131975D
:1002F000F1F7ED91FC9111973291BC0113960C909E
:10030000139702C0660F771F0A94E2F7262F2095F5
:1003100023232083ED91FC911197EF0122972881EF
:100320001396CC9113973291BC010C2E02C0660F2C
:10033000771F0A94E2F7632B6083ED91FC9111978C
:10034000308112960C9002C0880F991F0A94E2F730
:10035000809583238083CA010197F1F7822F90E073
:1003600002C095958795CA95E2F721E082278170B2
:10037000DF91CF911F910F91FF90EF900895E4E6E8
:10038000F0E085E390E091838083128281E08383B3
:1003900060916400709165008091660090916700A3
:1003A0000E943E0084E690E00E945D0062EA84E6DE
:1003B00090E00E94B5006DE084E690E00E94B500F8
:1003C00063E884E690E00E94B50084E690E00E9435
:0803D0008100E8CFF894FFCF93
:00000001FF
