S01900007461737465725F656E747072656C6C656E2E73726563E0
S11300000C942A000C9434000C9434000C943400A6
S11300100C9434000C9434000C9434000C9434008C
S11300200C9434000C9434000C9434000C9434007C
S11300300C9434000C9434000C9434000C9434006C
S11300400C9434000C9434000C9434000C9434005C
S11300500C94340011241FBECFE5D8E0DEBFCDBF21
S11300600E9436000C9475000C940000CF93DF932B
S113007000D000D0CDB7DEB78FEF82BB81E087BB65
S1130080AE014F5F5F4F61E082E390E00E94570052
S113009011E062E370E0CE0101960E9463008B815F
S11300A080FFF7CF1B8288B3812788BBF2CFFA0188
S11300B0DC018E91962F909589238C931182108266
S11300C0128263830895FC01DB0112972C91209521
S11300D09381292320839181291729F090959223D4
S11100E08281982B928321830895F894FFCF98
S9030000FC
