S01600005369676E616C4465746563746F722E7372656376
S11300000C9434000C9451000C9451000C94510045
S11300100C9451000C9451000C9451000C94510018
S11300200C9451000C9451000C9464000C945100F5
S11300300C9451000C9451000C9451000C945100F8
S11300400C9451000C9451000C9451000C945100E8
S11300500C9451000C9451000C9451000C945100D8
S11300600C9451000C94510011241FBECFEFD8E022
S1130070DEBFCDBF11E0A0E0B1E0E8E3F4E002C0F0
S113008005900D92A630B107D9F721E0A6E0B1E0C2
S113009001C01D92A832B207E1F70E9487000C94B8
S11300A01A020C9400002098289AE1E8F0E090816C
S11300B080910001892B80648083EFE6F0E08081E9
S11300C080628083789408951F920F920FB60F92E6
S11300D011248F93EF93FF93E7E2F1E08081816035
S11300E08083EAE0F1E084898F5F848B158A168A25
S11300F0178A108E118E128E138E148E2D9AFF91E4
S1130100EF918F910F900FBE0F901F901895259A25
S1130110249A229A239A0E9453008EE1EAE0F1E0A5
S1130120DF011D928A95E9F78AE02B9A2C9A2A9A84
S1130130BFE7E8E3F1E0B150E040F040E1F700C090
S113014000002B982C982A982FEF31EE94E0215040
S113015030409040E1F700C00000815031F7C7E221
S1130160D1E00AE011E0888180FF9BC088818E7F06
S11301708883F80185899689A789B08DAC01BD0172
S11301804F5F5F4F6F4F7F4F458B568B678B708FE1
S11301908C329140A105B10530F388818E7F88832C
S11301A0D80155961D921D921D921C9258975496F3
S11301B08C91549754968C918B30C1F42B9ABFEF49
S11301C0E0E7F2E0B150E040F040E1F700C00000A9
S11301D02B982FEF30E782E0215030408040E1F748
S11301E000C00000D80154961C9259C0F8018489BB
S11301F08E30B9F42C9AFFEF20E732E0F150204022
S11302003040E1F700C000002C988FEF90E7A2E0A7
S113021081509040A040E1F700C00000F801148A2A
S11302203EC084898F30C0F02A9ABFEFE0E7F2E045
S1130230B150E040F040E1F700C000002A982FEFF1
S113024030E782E0215030408040E1F700C00000F8
S1130250D80154961C9223C0F801148A83E02D9887
S11302602B982C982A98FFEF21EE34E0F15020408F
S11302703040E1F700C000002D9A2B9A2C9A2A9A5C
S11302809FE7A8E3B1E09150A040B040E1F700C07F
S11302900000815021F72D982B982C982A982D989E
S11302A062CF888180FD22C0F801618D728D838DBB
S11302B0948D6B017C01FFEFCF1ADF0AEF0AFF0A6E
S11302C0D8015996CD92DD92ED92FC925C970E94F2
S11302D0B40120E034E244E75AE40E9415021816FF
S11302E00CF041CF8881816088833DCF6091060105
S11302F07091070180910801909109010E94B40155
S11303006B017C0120E034E244EF59E40E94AF0128
S1130310882324F42B9A2C9A2A9A25CF20E034E2BD
S113032044EF59E4C701B6010E941502181674F48B
S113033020E034E244E75AE4C701B6010E94AF0169
S1130340882324F42B982C982A980DCF1092060118
S113035010920701109208011092090104CF0E9423
S1130360F10108F481E00895E89409C097FB3EF494
S113037090958095709561957F4F8F4F9F4F9923EE
S1130380A9F0F92F96E9BB279395F695879577956C
S11303906795B795F111F8CFFAF4BB0F11F460FF2C
S11303A01BC06F5F7F4F8F4F9F4F16C0882311F084
S11303B096E911C0772321F09EE8872F762F05C098
S11303C0662371F096E8862F70E060E02AF09A9533
S11303D0660F771F881FDAF7880F9695879597F928
S11303E00895990F0008550FAA0BE0E8FEEF1616C2
S11303F01706E807F907C0F012161306E407F50715
S113040098F0621B730B840B950B39F40A2661F088
S1130410232B242B252B21F408950A2609F4A1402B
S1130420A6958FEF811D811D08950E94F10108F4A6
S10B04308FEF0895F894FFCF4B
S1090438010203040500AB
S9030000FC
