:100000000C9434000C9451000C9451000C94510049
:100010000C9451000C9451000C9451000C9451001C
:100020000C9451000C9451000C9471000C945100EC
:100030000C9451000C9451000C9451000C945100FC
:100040000C9451000C9451000C9451000C945100EC
:100050000C9451000C9451000C9451000C945100DC
:100060000C9451000C94510011241FBECFEFD8E026
:10007000DEBFCDBF11E0A0E0B1E0E4E2F2E002C0FB
:1000800005900D92A630B107D9F721E0A6E0B1E0C6
:1000900001C01D92A031B207E1F70E9494000C94B8
:1000A00010010C9400002098289A811109C0E1E801
:1000B000F0E0908180910001892B806880830AC0E4
:1000C000813041F4E1E8F0E0908180910001892BDA
:1000D000806C8083EFE6F0E080818062808378949A
:1000E00008951F920F920FB60F9211248F93EF93E2
:1000F000FF93EFE0F1E0808181608083E6E0F1E052
:1001000080818F5F80831182128213821482158214
:100110001682178210862D9AFF91EF918F910F9082
:100120000FBE0F901F901895259A249A229A239A11
:1001300080E00E9453008AE0E6E0F1E0DF011D92DA
:100140008A95E9F7EFE0F1E0C6E0D1E0808180FF39
:10015000FDCF89819A81AB81BC81AC01BD014F5F2C
:100160005F4F6F4F7F4F49835A836B837C838C3201
:100170009140A105B10550F380818E7F8083198263
:100180001A821B821C822D9888818B30B1F42B9AA5
:100190008FEF90E7A2E081509040A040E1F700C0CF
:1001A00000002B98BFEF20E782E0B1502040804054
:1001B000E1F700C000001882C9CF88818E30B1F409
:1001C0002C9A9FEFA0E7B2E09150A040B040E1F739
:1001D00000C000002C982FEF80E792E02150804073
:1001E0009040E1F700C000001882B0CF88818F30C6
:1001F00008F4ACCF2A9AAFEFB0E722E0A150B040AC
:100200002040E1F700C000002A988FEF90E7A2E0BD
:1002100081509040A040E1F700C00000188296CFC6
:04022000F894FFCF80
:06022400010203040500C5
:00000001FF
