:100000000C9434000C9451000C9451000C94510049
:100010000C9451000C9451000C9451000C9451001C
:100020000C9451000C9451000C9462000C945100FB
:100030000C9451000C9451000C9451000C945100FC
:100040000C9451000C9451000C9451000C945100EC
:100050000C9451000C9451000C9451000C945100DC
:100060000C9451000C94510011241FBECFEFD8E026
:10007000DEBFCDBF11E0A0E0B1E0E8E6F3E002C0F2
:1000800005900D92A630B107D9F721E0A6E0B1E0C6
:1000900001C01D92A032B207E1F70E9481000C94CA
:1000A000B2010C940000E1E8F0E090818091000141
:1000B000892B80648083EFE6F0E08081806280831A
:1000C000789408951F920F920FB60F9211248F9378
:1000D000EF93FF93EFE1F1E0808181608083E6E0C0
:1000E000F1E0158A168A178A108E84898F5F848BB7
:1000F0002D9AFF91EF918F910F900FBE0F901F904F
:100100001895259A249A229A239A0E9453008AE1EC
:10011000E6E0F1E0DF011D928A95E9F78AE02B9A8B
:100120002C9A2A9ABFE7E8E3F1E0B150E040F040B2
:10013000E1F700C000002B982C982A982FEF31EEA1
:1001400094E0215030409040E1F700C00000815021
:1001500031F7CFE1D1E006E011E0888180FFFDCFEB
:10016000D80155966D917D918D919C9158976B0119
:100170007C01BFEFCB1ADB0AEB0AFB0AF801C58A48
:10018000D68AE78AF08E0E944C0120E030E64AEEE3
:1001900056E40E948901882304F388818E7F888336
:1001A000D80155961D921D921D921C9258975496F7
:1001B0008C918B30C1F42B9ABFEFE9E6F8E1B15096
:1001C000E040F040E1F700C000002B982FEF39E647
:1001D00088E1215030408040E1F700C00000D801A4
:1001E00054961C92BACF8E30C1F42C9ABFEFE9E638
:1001F000F8E1B150E040F040E1F700C000002C9879
:100200002FEF39E688E1215030408040E1F700C00F
:100210000000D80154961C92A0CF8F508330C0F4B8
:100220002A9ABFEFE9E6F8E1B150E040F040E1F78B
:1002300000C000002A982FEF39E688E121503040B5
:100240008040E1F700C00000D80154961C9285CF91
:10025000F801148A8AE02D982B982C982A98FFEFA1
:1002600021EE34E0F15020403040E1F700C00000C2
:100270002D9A2B9A2C9A2A9A9FE7A8E3B1E09150E5
:10028000A040B040E1F700C00000815021F72D9858
:100290002B982C982A9861CFE89409C097FB3EF4DC
:1002A00090958095709561957F4F8F4F9F4F9923C3
:1002B000A9F0F92F96E9BB279395F6958795779541
:1002C0006795B795F111F8CFFAF4BB0F11F460FF01
:1002D0001BC06F5F7F4F8F4F9F4F16C0882311F059
:1002E00096E911C0772321F09EE8872F762F05C06D
:1002F000662371F096E8862F70E060E02AF09A9508
:10030000660F771F881FDAF7880F9695879597F9FC
:1003100008950E948E0108F48FEF0895990F000848
:10032000550FAA0BE0E8FEEF16161706E807F907C7
:10033000C0F012161306E407F50798F0621B730B62
:10034000840B950B39F40A2661F0232B242B252BE3
:1003500021F408950A2609F4A140A6958FEF811D86
:08036000811D0895F894FFCF00
:0603680001020304050080
:00000001FF
