:100000000C94FE000C941F010C941F010C941F0112
:100010000C941F010C941F010C941F010C941F01E0
:100020000C941F010C941F010C941F010C941F01D0
:100030000C941F010C941F010C941F010C941F01C0
:100040000C941F010C941F010C941F010C941F01B0
:100050000C941F010C941F010C941F010C941F01A0
:100060000C941F010C941F010C941F010C941F0190
:100070000C941F010C941F010C941F010C941F0180
:100080000C941F010C941F010C941F010C941F0170
:100090000C941F010C941F010C941F010C941F0160
:1000A0000C941F010C941F010C941F010C941F0150
:1000B0000C941F010C941F010C941F010C941F0140
:1000C0000C941F010C941F010C941F010C941F0130
:1000D0000C941F010C941F010C941F010C941F0120
:1000E0000C941F010C941F010C94D4050C94FA0578
:1000F0000C9428060C941F010C941F010C941F01F2
:100100000C941F010C941F010C941F010C941F01EF
:100110000C941F010C941F010C941F010C941F01DF
:100120000C941F010C941F010C941F010C941F01CF
:100130000C941F010C941F010C941F010C941F01BF
:100140000C941F010C941F010C941F010C941F01AF
:100150000C941F010C941F010C941F010C941F019F
:100160000C941F010C941F010C941F010C941F018F
:100170000C941F010C941F010C941F010C941F017F
:100180000C941F010C941F010C941F010C941F016F
:100190000C941F010C941F010C941F010C941F015F
:1001A0000C941F010C941F010C941F010C941F014F
:1001B0000C941F010C941F010C941F010C941F013F
:1001C0000C941F010C941F010C941F010C941F012F
:1001D0000C941F010C941F010C941F010C941F011F
:1001E0000C941F010C941F010C941F010C941F010F
:1001F0000C941F010C941F010C941F0111241FBEAD
:10020000CFEFCDBFDFE5DEBF00E00CBF10E2A0E026
:10021000B0E2E4E6FFE000E00BBF02C007900D9201
:10022000A633B107D9F721E2A6E3B0E201C01D92DF
:10023000A535B207E1F70E9432060C94B0070C9482
:100240000000EF92FF920F931F93CF93DF938B01E8
:10025000C82FD0E02091402130E0A90102C055957F
:1002600047958A95E2F740FF03C06115710599F43F
:10027000FE01EE0FFF1FE25CFE4D83859485009723
:1002800081F10E942707FE01EE0FFF1FE25CFE4D89
:100290001386148626C0FE01EE0FFF1FE25CFE4DA2
:1002A000838594850097E9F0FE01EE0FFF1FE25C65
:1002B000FE4D238134816217730799F00E9427074E
:1002C000CE01880F991FFC01E25CFE4D7F01038384
:1002D0001483C8010E948F06F70183879487892BB6
:1002E00039F0CC0FDD1FC25CDE4D8B859C8502C0D2
:1002F00080E090E0DF91CF911F910F91FF90EF9000
:1003000008952091402130E0082E02C035952795B0
:100310000A94E2F720FF0FC090E1899FF0011124B9
:10032000E05FFE4F29E431E22487280F81E0820F4D
:1003300085872E5F268708950F931F93CF93DF93B2
:10034000C82F8B0180913F2190E02C2F269502C071
:10035000959587952A95E2F780FF1DC0CE7F8C2F5B
:100360000E942101D1E0DC0FB8018D2F0E942101F4
:100370008C2F0E9481018D2F0E94810120E1C29F5C
:10038000C0011124FC01E05FFE4F048315837096C9
:10039000048315830EC08C2F0E9421018C2F0E9494
:1003A000810180E1C89FF0011124E05FFE4F0483CA
:1003B0001583DF91CF911F910F9108954F925F9216
:1003C0006F927F928F929F92AF92BF92CF92DF9265
:1003D000EF92FF920F936B01E12CF12CA0913F2142
:1003E000B0E0982F969502C0B595A7959A95E2F73B
:1003F000A0FF40C04A01A12CB12CE82FEE7F80E184
:10040000E89FF0011124DF01A05FBE4F18966C93A6
:1004100018974D2C5E2C6F2C772419964C921997B7
:100420006701EE24FF241A96CC921A97E05EFE4FE5
:10043000408777276B2D5A2D492D41874501AA24E6
:10044000BB24828612968C9112978F7C822B1296F7
:100450008C93129782818F7C282B228312968C9109
:1004600012978F73802B12968C9382818F73082B37
:10047000028318C090E1899FF0011124E05FFE4FD4
:100480006087BB27AF2D9E2D8D2D81876701EE24C0
:10049000FF24C28682818F73082B028382818F7C26
:1004A000282B22830F91FF90EF90DF90CF90BF9089
:1004B000AF909F908F907F906F905F904F90089536
:1004C0000F93022F242FAB010E94DE010F9108959C
:1004D0004F925F926F927F92AF92BF92CF92DF92D4
:1004E000EF92FF920F931F93CF93DF93C82F7B015F
:1004F0005A012B01612C712C80913F2190E03C2FFF
:10050000369502C0959587953A95E2F780FFB8C079
:100510001C2F1E7F80E1189FE00111246E01E0EF87
:10052000CE1AEEEFDE0AF60182818C7F822B828367
:10053000C05EDE4F8A818C7F282B2A838281837F55
:10054000802B82838A81837F082B0A83672B41F16A
:10055000E12FF0E0AEE3B1E281E090E0012E02C0D5
:10056000880F991F0A94E2F7809512969C91129732
:10057000892312968C93EE0FFF1FE25CFE4D638180
:100580007481812F0E942101F601E486BB27A72DEB
:10059000962D852D8587230166247724468620C0E5
:1005A000E12FF0E0AEE3B1E281E090E0012E02C085
:1005B000880F991F0A94E2F712969C911297892B43
:1005C00012968C93EE0FFF1FE25CFE4D63817481E7
:1005D000812F0E942101892B19F0812F0E94810116
:1005E000A114B10451F16501E12CF12C812F90E0AF
:1005F0000196EEE3F1E221E030E0082E02C0220F86
:10060000331F0A94E2F72095328123232283880F37
:10061000991FFC01E25CFE4D6381748181E0810FD2
:100620000E942101AC86BB27AF2D9E2D8D2D8D877D
:100630006701EE24FF24CE867EC0812F90E00196D4
:10064000EEE3F1E221E030E0082E02C0220F331F7A
:100650000A94E2F73281232B2283C1E0C10F880F75
:10066000991FFC01E25CFE4D638174818C2F0E9416
:100670002101892B09F45FC08C2F0E9481015BC08E
:10068000F0E1CF9F6001112480EFC81A8EEFD80AE5
:10069000F60182818C7F282B22838281837F082B25
:1006A0000283672B41F1EC2FF0E0AEE3B1E281E091
:1006B00090E00C2E02C0880F991F0A94E2F78095F3
:1006C00012969C911297892312968C93EE0FFF1F1E
:1006D000E25CFE4D638174818C2F0E942101F60142
:1006E000E486BB27A72D962D852D858723016624BB
:1006F0007724468620C0EC2FF0E0AEE3B1E281E043
:1007000090E00C2E02C0880F991F0A94E2F712960F
:100710009C911297892B12968C93EE0FFF1FE25C2F
:10072000FE4D638174818C2F0E942101892B19F069
:100730008C2F0E948101DF91CF911F910F91FF902B
:10074000EF90DF90CF90BF90AF907F906F905F90D1
:100750004F9008950F931F93CF93DF93182FD62FA9
:10076000C72F022F242F462F572F0E946802E12FF8
:10077000F0E02091402130E002C0359527951A9590
:10078000E2F720FF07C0EE0FFF1FE25CFE4D8385FE
:10079000948502C08D2F9C2FDF91CF911F910F91D7
:1007A000089520913F2130E0982F969502C035950D
:1007B00027959A95E2F720FF14C0E82FEE7F80E19D
:1007C000E89FF0011124DF01A05FBE4F8C918C7F68
:1007D000862B8C93E05EFE4F80818C7F682B60833C
:1007E000089590E1899FF0011124E05FFE4F808120
:1007F0008C7F682B60830895E0E0F1E08081806861
:100800008083089520913F2130E0982F969502C073
:10081000359527959A95E2F720FF12C0E82FEE7FD5
:1008200080E1E89FF0011124DF01A05FBE4F8C91B1
:1008300080688C93E05EFE4F80818F77808308957F
:1008400090E1899FF0011124E05FFE4F8081806874
:100850008083089520913F2130E0982F969502C023
:10086000359527959A95E2F720FF12C0E82FEE7F85
:1008700080E1E89FF0011124DF01A05FBE4F8C9161
:100880008F778C93E05EFE4F80818F778083089511
:1008900090E1899FF0011124E05FFE4F80818F7706
:1008A0008083089520E1829FC0011124FC01E05F54
:1008B000FE4F908194FDFDCF8081806180830895FB
:1008C000613069F120913F2130E0982F969502C068
:1008D000359527959A95E2F720FF16C0E82FEE7F11
:1008E00080E1E89FF0011124DF01A05FBE4F169662
:1008F0006C931697E05EFE4F66838C9180628C93BA
:10090000808180628083089590E1899FF0011124A5
:10091000E05FFE4F6683808180628083089520912E
:100920003F2130E0982F969502C0359527959A95EE
:10093000E2F720FF12C0E82FEE7F80E1E89FF00190
:100940001124DF01A05FBE4F8C918F7D8C93E05E00
:10095000FE4F80818F7D8083089590E1899FF00113
:100960001124E05FFE4F80818F7D80830895209168
:100970003F2130E0982F969502C0359527959A959E
:10098000E2F720FF19C0E82FEE7F80E1E89FF00139
:100990001124DF01A05FBE4F8C9170E0660F771FBE
:1009A000660F771F8B7F862B8C93E05EFE4F8081D6
:1009B0008B7F682B6083089590E1899FF00111245B
:1009C000E05FFE4F80818B7F660F660F682B608330
:1009D000089520913F2130E0982F969502C03595DB
:1009E00027959A95E2F720FF0DC0E82FEE7F20E1D2
:1009F000E29FC0011124FC01E05FFE4F638370960B
:100A00006383089590E1899FF0011124E05FFE4F18
:100A100063830895CF92DF92EF92FF920F931F931B
:100A2000CF93E0913E21F0E0082E02C0F595E795C6
:100A30000A94E2F7E0FD54C069018A017B01C82FE6
:100A40000E94FC038C2F0E942A04EEE3F1E281E075
:100A500090E09C010C2E02C0220F331F0A94E2F793
:100A60003081232B20834C2F4695A0E0B1E03C91B0
:100A700021E0240F220F220F209523232C9302C064
:100A8000880F991F4A95E2F7809591818923818388
:100A9000B6018C2F0E949C0120EC40E1B7018C2F05
:100AA0000E9460022CE041E0B8018C2F0E94AA0352
:100AB00060E08C2F0E94D10361E08C2F0E946004C3
:100AC00060E08C2F0E94B70460E08C2F0E94E90444
:100AD0008C2F0E9402048C2F0E94520481E001C0DE
:100AE00080E0CF911F910F91FF90EF90DF90CF901A
:100AF0000895CF93DF93EC01892B79F110929B201D
:100B000010929A201F82440F551F661F771F440FB3
:100B1000551F661F771F9A01AB01220F331F441F19
:100B2000551F220F331F441F551F60E078E488EEE5
:100B300091E00E946D0621502E8380E38B8388E133
:100B40008C8383E08D83E0E8F6E088E0818384E0B5
:100B5000828387E08093A2007894DF91CF910895FB
:100B600020919D202F5F2F7190919C202917E1F3F8
:100B7000E22FF0E0E25EFE4D808320939D20E0EACC
:100B8000FAE08381836083830895CF93DF93EC0140
:100B90008881882331F021960E94B00589918111C6
:100BA000FBCFDF91CF9108951F920F920FB60F9256
:100BB00011240BB60F928F939F93EF93FF93909115
:100BC000A00AE0919B20EF5FEF7780919A20E817D1
:100BD00031F0E0939B20F0E0E256FF4D9083FF91CF
:100BE000EF919F918F910F900BBE0F900FBE0F90C2
:100BF0001F9018951F920F920FB60F9211240BB6EB
:100C00000F928F939F93EF93FF9390919D208091EC
:100C10009C20981769F0E0919C20EF5FEF71E093C2
:100C20009C20F0E0E25EFE4D80818093A00A05C02A
:100C3000E0EAFAE083818C7F8383FF91EF919F91BB
:100C40008F910F900BBE0F900FBE0F901F901895B5
:100C50001F920F920FB60F9211240F900FBE0F909C
:100C60001F9018950E945D0640E855E260E070E034
:100C700080EA9AE00E9479052FEF83EC99E02150F9
:100C800080409040E1F700C0000060910620709124
:100C9000072024E030E046E350E280E00E940A05AD
:100CA0008AE290E20E94C50586E390E20E94C505B3
:100CB00083E390E20E94C505FFCF88ED84BF82E008
:100CC00080935000E0E5F0E0818181FFFDCF88ED69
:100CD00084BF81E0809340000895A1E21A2EAA1BF0
:100CE000BB1BFD010DC0AA1FBB1FEE1FFF1FA217DC
:100CF000B307E407F50720F0A21BB30BE40BF50BD9
:100D0000661F771F881F991F1A9469F76095709561
:100D1000809590959B01AC01BD01CF0108950F9383
:100D20001F93CF93DF938230910510F482E090E01F
:100D3000E0915321F091542120E030E0A0E0B0E0B8
:100D4000309719F140815181028113814817590769
:100D5000C8F08417950769F4109731F012960C9338
:100D6000129713961C9327C000935321109354217C
:100D700022C02115310519F04217530718F49A01C2
:100D8000BD01EF01DF01F801DBCF21153105F9F0DD
:100D9000281B390B2430310580F48A819B81611531
:100DA000710521F0FB018283938304C0809353215A
:100DB00090935421FE01329644C0FE01E20FF31FCE
:100DC0008193919322503109288339833AC020912D
:100DD000512130915221232B41F420910220309156
:100DE00003202093512130935221209100203091F3
:100DF00001202115310541F42DB73EB74091042063
:100E000050910520241B350BE0915121F091522186
:100E1000E217F307A0F42E1B3F0B2817390778F0D1
:100E2000AC014E5F5F4F2417350748F04E0F5F1F30
:100E300040935121509352218193919302C0E0E05D
:100E4000F0E0CF01DF91CF911F910F910895CF93E3
:100E5000DF93009709F481C0FC013297128213825C
:100E6000A0915321B0915421109781F420813181B8
:100E7000820F931F20915121309152212817390759
:100E800051F5E0935121F093522167C0ED0120E02C
:100E900030E0CE17DF0740F44A815B819E014115A7
:100EA0005105F1F0EA01F5CFC283D383408151812E
:100EB000840F951FC817D90759F488819981840F29
:100EC000951F0296808391838A819B81828393837D
:100ED0002115310529F4E0935321F09354213DC0AD
:100EE000E901EA83FB8349915991C40FD51FEC179F
:100EF000FD0761F480819181840F951F0296E901BD
:100F000088839983828193818A839B83E0E0F0E0E8
:100F100012968D919C911397009719F0FD01DC01B9
:100F2000F7CF8D919C9111979D012E5F3F4F820FBE
:100F3000931F20915121309152212817390769F4CC
:100F4000309729F4109253211092542102C012823A
:100F50001382A0935121B0935221DF91CF91089534
:040F6000F894FFCF33
:100F64000000552120002F2048616C6C6F205765CC
:100F74006C74213132333435002D2D2D2D2D2D2D32
:100F84002D2D2D2D2D2D2D2D2D0052783A20003173
:060F94003233340D0A00A7
:00000001FF
